:100000000C9434020C94F51C0C946C020C946C024D
:100010000C946C020C946C020C946C020C946C02A8
:100020000C946C020C946C020C941B220C94EE2227
:100030000C94481B0C946C020C946C020C946C0293
:100040000C946C020C946C020C946C020C946C0278
:100050000C946C020C94001C0C946C020C946C02BA
:100060000C946C020C946C020C946C020C946C0258
:100070000C946C020C946C020C946C020C946C0248
:100080000C946C020C946C020C946C020C946C0238
:100090000C946C020C946C020C946C020C946C0228
:1000A0000C946C020C946C020C946C0229001400E9
:1000B0001A000800150017000000000000000000F2
:1000C000000000002B0004001600070009000A00D1
:1000D000000000000000000000000000E1001D0022
:1000E0001B000600190005000000000000000000D1
:1000F000000000000000000000000000E000407E62
:100100000000000000000000000000002A001300B2
:1001100012000C0018001C0000000000000000008D
:1001200000000000340033000F000E000D000B0033
:10013000000000000000000000000000280038005F
:100140003700360010001100000000000000000021
:10015000000000000000000000000000E6002C008D
:1001600000000000000000000000000029001E0048
:100170001F002000210022000000000000000000FD
:10018000000000002B004800AC00A900AA00AB0052
:10019000000000000000000000000000E100390045
:1001A000B200BE00BD00AE00000000000000000074
:1001B000000000000000000000000000E000407EA1
:1001C0000000000000000000000000002A002700DE
:1001D000260025002400230000000000000000008D
:1001E0000000000000004C004F0052005100500081
:1001F0000000000000000000000000002800460091
:100200004B004E0000000000000000000000000055
:10021000000000000000000000000000E6002C00CC
:1002200000000000000000000000000029003A006B
:100230003B003C003D003E000000000000000000CC
:10024000000000002B003F0040004100420043003E
:10025000000000000000000000000000E1000000BD
:10026000000000000000000000000000000000008E
:10027000000000000000000000000000E000407EE0
:100280000000000000000000000000003500310008
:1002900030002F002E002D000000000000000000A4
:1002A000000000000000000000000000000000004E
:1002B000000000000000000000000000000000003E
:1002C000000000000000000000000000000000002E
:1002D000000000000000000000000000E6002C000C
:1002E0000000000000000000000000001003630098
:1002F0006C006F00750064003400300000001C03C7
:100300004200720061006E0064006F006E00200009
:100310005A00680061006E006700000004030904D1
:1003200009023B00020100A0FA09040000010301D8
:100330000100092111010001224400070581030881
:10034000000109040100010300000009211101005E
:100350000122B600070582032000011201000200FD
:10036000000008EDFE000000010102000105010986
:1003700002A10185020901A1000509190129081539
:100380000025019508750181020501093009311523
:1003900081257F95027508810609381581257F958D
:1003A0000175088106050C0A38021581257F950123
:1003B00075088106C0C005010980A10185031901E6
:1003C0002AB700150126B700950175108100C005F8
:1003D0000C0901A101850419012AA002150126A01A
:1003E00002950175108100C005010906A10185066D
:1003F000050719E029E71500250195087501810217
:100400000507190029EF1500250195F075018102F6
:1004100005081901290595057501910295017503D6
:100420009101C005010906A101050719E029E71599
:100430000025019508750181029501750881010566
:1004400007190029FF150026FF0095067508810091
:100450000508190129051500250195057501910269
:10046000950175039101C00011241FBECFEFDAE0A2
:10047000DEBFCDBF04B603FE18C080912303909168
:100480002403A0912503B09126038730904BA74009
:10049000B04B59F4109223031092240310922503B9
:1004A00010922603E0E0F8E3099511E0A0E0B1E046
:1004B000E8E9FBE402C005900D92AE3AB107D9F726
:1004C00023E0AEEAB1E001C01D92A332B207E1F72A
:1004D0000E94C7140C9478250C9400009C01FB0129
:1004E0008581882339F120343E4729F58091B00178
:1004F000813079F08230A9F0811109C081E00E9439
:100500009F0780E00E94AF0781E08093B00180E008
:10051000089582E00E949F0781E00E94AF0782E079
:10052000F4CF82E00E94AF0780E00E949F07109204
:10053000B001EDCF81E008958330B8F46830A8F4BD
:100540004C3098F4E42FF0E09CE0699FE00DF11D41
:10055000112490E6899FE00DF11D1124EE0FFF1F7D
:10056000E455FF4F85919491089581E090E00895BE
:100570000E949C02089581E008950E94BB020895A4
:1005800081E008950E946E02089508950E94C502B8
:100590000895A6E0B0E0EFECF2E00C94D424498397
:1005A0005A839E833091B60189819A8131111AC094
:1005B0003E81332399F0222389F00E946608182F88
:1005C000682F89819A810E94420869817A81812FEE
:1005D0000E947A0F2696E3E00C94F0240E945408BF
:1005E000182FF3CF0E94660869817A81F1CFFC0150
:1005F000262F4081518162817381848195810E947F
:10060000C9020895CF93DF93D82FC92F61E00E94CC
:10061000F7026D2F7C2F0E94BD02DF91CF910895CC
:10062000CF93DF93D82FC92F60E00E94F7026D2F80
:100630007C2F0E94C602DF91CF91089581E008953A
:100640000E941E030895CF93C82F0E9414078C2F79
:100650000E9420032FEF84E39CE0215080409040D3
:10066000E1F700C00000CF91089581E00E942303CC
:100670000E94241C089580E00E9423030E94481CCD
:1006800008950F931F93CF93DF938C0161E00E9435
:10069000F702EC01B8010E94C2028823B1F1B8014F
:1006A000CE010E941319882381F1B801CE010E9466
:1006B0004715882351F1B801CE010E941C158823EB
:1006C00021F1F8018581882381F0CA35FCE7DF0735
:1006D00039F178F4C130ECE7DE07F9F0C330FCE71C
:1006E000DF07C9F0C115DC4771F0C8010E94C002E4
:1006F0000DC0CB35ECE7DE07B1F0CC35DC47A9F710
:100700000E949A0CF2CF0E94350380E0DF91CF91D6
:100710001F910F9108950E94AC0C0E943B03F5CFEE
:100720000E94A40CE2CF0E94A80CDFCF0E94241BE1
:100730000E94B60308950E94BA030E94291B0895DF
:1007400081E008950895CF93DF93D82F0E94A003EE
:10075000C82F882319F08D2F0E94A2038C2FDF91C0
:10076000CF91089508950E94A303089580E00E9408
:10077000B30308950E9459190E94B3030895CF93BB
:100780000E945919C82F8091B1018C1779F0C0933C
:10079000B1010E94B41B6093B2017093B3018093C6
:1007A000B4019093B5018C2F0E94B303CF910895AB
:1007B000ADE0B0E0EEEDF3E00C94D5244887598726
:1007C0006A877B878C879D8791110E94A50B1F826A
:1007D00086E0FE013896DE01119601900D928A9511
:1007E000E1F78D8181110DC029813A814B815C81B6
:1007F0006D817E818F810E94EB0A2D96E2E00C9440
:10080000F124CE0101960E9402038111EDCFF5CFB4
:10081000FC018481813021F4808191810E949808BB
:100820000895662329F00E94B5160E947617089550
:100830000E94FE16FACFCF93C82F882399F08CEF31
:100840008C0F813A88F48C2F0E94031A882329F098
:100850008C2F0E94A81A0E943D0C8C2F0E94911A86
:100860000E943D0CCF91089580E28C0F883048F4AF
:10087000C77081E001C0880FCA95EAF70E94860B15
:10088000EFCF8BE58C0F833038F42C2F2452330BB1
:10089000C9010E949619E6CFE8E5EC0FEB3150F460
:1008A000F0E0EE0FFF1FE05DFE4F808191810E941E
:1008B000BC19D8CF83E38C0F8331A0F661E08C2F75
:1008C0000E941104CFCF882381F19CEF980F913AB9
:1008D00028F40E94A81A0E943D0C089590E2980FF7
:1008E000983050F4877091E001C0990F8A95EAF72B
:1008F000892F0E948C0BEFCF9BE5980F933028F443
:1009000080E090E00E949619089598E5980F9B3139
:1009100028F480E090E00E94BC19089593E3980FBA
:10092000933118F460E00E94110408951F93CF934F
:10093000DF93182FEB010E941B04209739F4812FBD
:100940000E946304DF91CF911F9108958FE99FE08A
:100950000197F1F700C000002197EFCF60E070E051
:10096000893311F460E570E00E94960408958823AD
:1009700021F00E94860B0E943D0C0895882321F0EF
:100980000E948C0B0E943D0C0895A0E0B0E0EBECBF
:10099000F4E00C94CF246C01D62FC72FFC011581F5
:1009A000068102950F700E947B0BE82E8823F9F0D8
:1009B000E12E1123E1F08C2F807F803461F080E202
:1009C0008D0F8830F0F08C2F807E803221F4D23071
:1009D000C0F00023B1F08091EB0282FF12C082E0F0
:1009E0000E946D0C0E947B0B91E0E82EE926EC2F13
:1009F000E295EF70C03CB0F5F0E0E658FA4D0C948B
:100A0000BF24E12CF4CF0C2F0F70C03110F00295F1
:100A1000007F112399F0002359F080E28D0F883078
:100A200010F0D11107C0802F0E94860B0E943D0C50
:100A30008D2F51C0802F0E94970BF8CF8D2F0E94D1
:100A40006304002379F080E28D0F883010F0D1111B
:100A500004C0802F0E948C0B03C0802F0E949D0B2E
:100A60000E943D0CEE2089F00E94770B80FD0DC0A6
:100A7000F60115820E94710B0E949F07C6010E9419
:100A8000DB060E94710B0E94AF07CDB7DEB7E8E02E
:100A90000C94EB24FC2FFF70FF2EC07FC03219F0A6
:100AA000F29480EFF822DD2341F0D130D1F111230F
:100AB00009F444C00023F1F0BBCF8091EB0282FD2A
:100AC00015C0112359F0FF2029F08F2D0E94860BAD
:100AD0000E943D0C80E00E941B04C4CF80E00E9475
:100AE0006304FF2009F4BECF8F2DB4CF112369F02A
:100AF000011104C08F2D0E94B704B4CF013009F05A
:100B0000B1CF8F2D0E94BD0BADCF0111ABCF8F2D7B
:100B10000E94BE048F2D0E94C90B8F2D0E94AC0B2A
:100B2000A1CF112321F0063008F09CCFE3CF053090
:100B300008F098CF8F2D0E94BE0494CF0023D1F3EC
:100B4000D93349F42FEF87EE93E021508040904055
:100B5000E1F700C000008D2F0E94630483CF8C2F2B
:100B6000869586958370882369F0813009F07ACF65
:100B70008D2F9C2F9370111102C080E090E00E9495
:100B8000BC1970CF8D2F9C2F9370111102C080E083
:100B900090E00E94961966CF612F8D2F0E9411045C
:100BA00061CF8C2F8370811139C0111129C04D2F55
:100BB000429546954770440F440F2D2F2F7030E01B
:100BC000042E02C0220F331F0A94E2F780E090E067
:100BD000D4FF09C08FE090E002C0880F991F4A95AA
:100BE000E2F780959095C695C695C370822B932B9E
:100BF000C23071F0C33079F0C13039F00E946F0714
:100C00000E9459190E94B3032DCF0E946607F8CFA6
:100C10000E947807F5CF0E946307F2CF112361F19C
:100C2000C0FFEECF4D2F429546954770440F440FBD
:100C30002D2F2F7030E0042E02C0220F331F0A9494
:100C4000E2F780E090E0D4FF09C08FE090E002C0BE
:100C5000880F991F4A95E2F780959095C695C6959D
:100C6000C370822B932BC23069F0C33071F0C13056
:100C700031F00E94DA07C4CF823010F2D3CF0E9445
:100C8000D107BECF0E94E307BBCF0E948707B8CF32
:100C9000CF70112339F08C2F0E949F078D2F0E9457
:100CA000B704AECF8D2F0E94BE048C2F0E94AF07D9
:100CB000A7CFD23F31F170F4D03FB9F0D13FB1F1BD
:100CC000112309F44EC0002309F448C08D2F0E945F
:100CD0001B0496CFD33FE1F0D43F21F11111F3CFA4
:100CE00001114DC08C2F8F71E1CF112341F00530E0
:100CF00008F086CF8C2F8F710E94C10781CF0530FD
:100D0000F7CF8C2F8F711111D1CF0E949F0778CF11
:100D1000112329F08C2F8F710E94930771CF0E94AD
:100D20008E076ECF8091EB0282FD06C08C2F8F71F3
:100D3000112309F4BBCFE9CF112331F063E08C2FED
:100D40008F710E944F0C5CCF81E00E946D0C0230CD
:100D500008F456CF82E00E946D0C52CF8C2F8F7119
:100D6000D4CF002309F4BECFD93349F4EFEFF7EE27
:100D700023E0E150F0402040E1F700C000008D2F5B
:100D80000E9463043DCF0F931F93CF93DF93EC0139
:100D9000688179818D810E94A5088C010E94EC07F1
:100DA0000E946207B801CE010E94C504DF91CF9175
:100DB0001F910F910895CF93DF93EC018C818823CD
:100DC00099F0CE010E944103811111C00E947B0B5A
:100DD000882351F08D81882339F08091EB0282FFC6
:100DE00003C082E00E946D0CDF91CF910895CE0187
:100DF0000E94C306CE010E941003F6CF80E090E06F
:100E00000E94961980E090E00E94BC190E94A50BF8
:100E10000E943D0C0E9493170E94761708950E942D
:100E2000BF1A0E94FE0608950E94940B0E940F07AD
:100E30000895282F92959F70963091F060F4925FFC
:100E40009F70923030F481E0203F79F030F4283EFA
:100E500030F080E008959A5FF3CF243FD1F70895F2
:100E600081E0283EE0F3213FF9CF0895FC01848121
:100E7000882339F0808191810E9498080E94190787
:100E8000089580E00895A6E0B0E0E9E4F7E00C946E
:100E9000D5242696E2E00C94F124A7E0B0E0E3E547
:100EA000F7E00C94D5242796E2E00C94F124089501
:100EB0000E94570708950E9458079093EA01809373
:100EC000E901089508950E945B0708952091E901C2
:100ED0003091EA01822B932B0E945B0708952091A9
:100EE000E9013091EA01822393230E945B07089570
:100EF0002091E9013091EA01822793270E945B0744
:100F000008950E94570708950E94810708950E943E
:100F100084079093E8018093E701089580E090E0D2
:100F20000E948707089521E030E0A90102C0440F24
:100F3000551F8A95E2F7CA010E948707089521E0AC
:100F400030E002C0220F331F8A95E2F78091E7015B
:100F50009091E801822B932B0E948707089521E04E
:100F600030E002C0220F331F8A95E2F720953095BA
:100F70008091E7019091E801822393230E948707E3
:100F8000089521E030E002C0220F331F8A95E2F776
:100F90008091E7019091E801822793270E948707BB
:100FA00008952091E7013091E801822B932B0E9454
:100FB000870708952091E7013091E8018223932368
:100FC0000E94870708952091E7013091E801822768
:100FD00093270E948707089508959B01677091E009
:100FE00001C0990F6A95EAF763E0369527956A95EF
:100FF000E1F7220F331F220F331FFA01E20FF31F15
:1010000040E050E0682F70E08191DF0111979B0173
:10101000042E02C0369527950A94E2F72170219597
:101020002827292328272C934F5F5F4F44305105F1
:1010300059F708959C01982F977083E0369527956E
:101040008A95E1F7220F331F220F331FFB01E20FB6
:10105000F31F40E050E080E0219130E0092E02C013
:10106000369527950A94E2F721703327042E01C0A4
:10107000220F0A94EAF7822B4F5F5F4F44305105ED
:1010800059F70895282F862F983068F42C3058F49B
:10109000622F70E02CE0929F600D711D112447EBD0
:1010A00051E00E94ED070895292F983068F48C30A4
:1010B00058F490E067EB71E03CE0239F800D911DB8
:1010C00011240E941A08089580E00895A0E0B0E07D
:1010D000ECE6F8E00C94CE248C01E090E701F0906F
:1010E000E8018091E9019091EA01E82AF92ACFE02C
:1010F000D0E0CC24C394D12CC6010C2E02C0880FA2
:10110000991F0A94E2F78E219F21892B49F4219798
:1011100098F7B12C8B2DCDB7DEB7E9E00C94EA241B
:10112000BC2EB8018C2F0E94860F019781F3F2CF5D
:10113000CF93DF93D82FC92F0E9466086D2F7C2F85
:101140000E94860FDF91CF9108951F93CF93DF9375
:10115000162FD72F9091B601992341F0862F972F04
:101160000E949808DF91CF911F910895882381F004
:10117000862F972F0E946608C82F682F812F9D2FDA
:101180000E944208612F7D2F8C2F0E94860FEACF8C
:10119000862F972F0E945408C82FF4CF0F931F93C8
:1011A000CF93E091EB01C7E08091EC018E1304C076
:1011B000CF911F910F9108950E2F10E0CE9FF00157
:1011C0001124E351FE4F208131814281538164819A
:1011D000758186810E944D07F8013196E770E4CF52
:1011E0002091250230912602409127025091280239
:1011F0006091290270912A0280912B020E944D0772
:10120000089580912B02803178F480912A028823FE
:1012100059F0E091EB012091EC01309126024091D0
:10122000250257E02E1301C008956E2F70E05E9FD7
:10123000F0011124DF01A351BE4F14968C91149735
:10124000882361F111968C911197831327C08C919B
:10125000841324C015968C91159781111FC0129686
:101260008D919C91A0912702B09128028A1B9B0B23
:10127000883C910598F480912B028F708061809357
:101280002B02ED50FE4F80818F708061808385E25C
:1012900092E00E94DB060E94CE080895FB01319681
:1012A000E770C0CFE091EB019091EC0127E0E913EA
:1012B00002C080E00895AE2FB0E02E9FF00111240F
:1012C000E351FE4F3181361306C03081381303C01D
:1012D0003581341304C0FD013196E770E8CF81E019
:1012E00008958F929F92AF92BF92DF92EF92FF92FA
:1012F0000F931F93CF93DF93CDB7DEB72D970FB624
:10130000F894DEBF0FBECDBF8C0186E0F801DE0190
:10131000189601900D928A95E1F7F801E080F5802A
:10132000A280B380848195E2892E92E0992E9091DB
:10133000290291111BC0882309F4FCC0FF2009F485
:101340003DC1C8010E943607882309F437C187E0F0
:10135000F801D40101900D928A95E1F7C4010E9431
:1013600008040E9401090E94F008E4C0D0902A02FB
:101370002091270230912802A501421B530BDD204A
:1013800009F4DBC0483C510508F0A6C0882309F4E5
:10139000D1C090912602918080912B02803108F07B
:1013A0006BC0991228C0909125029E1124C0F110A3
:1013B0005DC08F70806180932B020E94F00885E2EF
:1013C00092E00E94DB0680912B02F8018683F12CCB
:1013D0008F2D2D960FB6F894DEBF0FBECDBFDF91D7
:1013E000CF911F910F91FF90EF90DF90BF90AF9042
:1013F0009F908F900895F11039C040E0692D8E2D97
:101400000E94520940E0692D8E2D0E945209F82E4B
:101410008111DDCF888599850E949808292F229512
:101420002F70903450F49F70223080F0992399F0FF
:10143000F8019681903178F4CBCF2A5F2F7022305B
:1014400078F0C8010E94DB06FD2CC2CF992319F069
:10145000882309F4BDCF805E883008F4B9CFF1CF7E
:10146000803F08F4B5CF815F8230F7CF80912B02A7
:10147000816080932B02ABCF991207C09091250217
:101480009E1103C0FF2009F479C0C8010E943607ED
:10149000882309F493C0FF2009F490C080912B02A7
:1014A000803288F020912502309126023A832983E8
:1014B000BC82AB82909129029D831E828F83CE01D4
:1014C00001960E94DB0687E0F801A5E2B2E00190F8
:1014D0000D928A95E1F745CF90912B029031A0F4BF
:1014E000488559856A857B858C859D850E94430743
:1014F00085E292E00E94DB0687E0F40111928A9572
:10150000E9F70E94F00863CF8823A1F0209126021A
:1015100081812813BACF809125028E11B6CFF110A8
:10152000B4CF9683C8010E94DB0687E0F4011192D4
:101530008A95E9F7FF24F3944BCF483C510508F016
:1015400041C08823B9F3FF20C9F19091260281811F
:1015500098132AC0809125028E1126C080912B02FB
:1015600080FD19C08031B8F08683807F803F39F0DC
:101570008681982F907F905F8F70892B8683C8011A
:101580000E94DB0687E0F801A5E2B2E001900D922F
:101590008A95E1F7E8CE87E0F801A5E2B2E0019094
:1015A0000D928A95E1F7C6CFC8010E9436078111D6
:1015B0008ACF80912B02816080932B02C8010E9408
:1015C000DB06B8CF488559856A857B858C859D85E6
:1015D0000E94430791CFAEE0B0E0E1EFFAE00C9457
:1015E000D424288739874A875B876C877D878E87D5
:1015F000CE0108960E9471098823B1F06C8566239C
:1016000041F0288539854A855B857D858E850E94D8
:101610004D0717E08091EB019091EC0189133EC0DA
:101620002E96E3E00C94F02487E0FE013896DE016C
:10163000119601900D928A95E1F72091EC0140916D
:10164000EB018C85882329F330E0C901019687706E
:10165000992750E08417950799F097E0929FD00161
:10166000939FB00D1124A351BE4FFE0131960190FE
:101670000D929A95E1F78093EC010E94CE08C9CFB4
:101680000E9414071092EC011092EB0187E0E5E252
:10169000F2E0DF011D928A95E9F7BBCF189FC001E8
:1016A000112483519E4F0E947109882309F4B8CFF9
:1016B000E091EB011E9FF0011124E351FE4F2081C8
:1016C0003181428153816481758186810E944D07F9
:1016D0008091EB0190E00196877099278093EB0150
:1016E00099CF80915402869586958695089580912C
:1016F00054028770089590915402977081E091117F
:1017000001C080E008958091800208959091800248
:10171000982B909380020895982F90958091800245
:1017200089238093800208951092800208959091F9
:101730007F02982B90937F020895982F9095809127
:101740007F02892380937F02089510927F0208957B
:1017500008950E94A80B089590915502292F2823DF
:10176000222331F080958923809355020E94A90B92
:10177000089508950E94B90B089590915602292F5B
:101780002823281729F0982B909356020E94BA0B11
:10179000089590915602292F2823222331F0809515
:1017A0008923809356020E94BA0B089580915602B5
:1017B000882329F01092560280E00E94BA0B089507
:1017C000CF93DF93C091800280917F02C82BD0918C
:1017D0005602DD2331F00E94E21981110E94D60BDE
:1017E000CD2B8C2FDF91CF910895CF93DF93C091B4
:1017F0000201D09103010E94E00B8883C091020195
:10180000D091030148E050E06CE472E0CE010E9408
:101810001025892B59F088E0FE01ACE4B2E001907C
:101820000D928A95E1F7CE010E946D19DF91CF915B
:101830000895CF93DF93C0910001D09101010E94E0
:10184000E00B8983C0910001D091010140E250E09A
:101850006CE272E0CE010E941025892B59F080E2E3
:10186000FE01ACE2B2E001900D928A95E1F7CE0163
:101870000E947819DF91CF91089580912F018823DC
:1018800039F08091EA0287FF03C00E94190C089585
:101890000E94F50B089508950E944B0C08959091B5
:1018A000EB0292FF11C098E0899F90011124622BF6
:1018B000609354020E949F078091540286958695FA
:1018C00086950E944C0C08950E949F0708951092DF
:1018D000540280E00E944C0C08959091540280952F
:1018E000892380935402282F277021110DC0891756
:1018F00059F09091EB0292FF07C0869586958695E8
:101900000E94AF070E94670C08959091EB0292FB32
:10191000222720F9281769F080FB92F99093EB02B7
:101920008091EA029091EB020E94CD0C82E00E942D
:101930006D0C08958091EB0282FB882780F991E07D
:1019400089270E94850C089581E00E94850C0895E6
:1019500080E00E94850C08956FEF7FEF80E090E0BB
:101960000E946225089580E090E00E942E259C014F
:1019700081E0253E3E4F09F080E0089582E090E04E
:101980000E942625089583E090E00E942625089570
:1019900084E090E00E942E250895BC0184E090E050
:1019A0000E9462250895AB01BC018FE090E00E9487
:1019B00056250895AB01BC0183E190E00E945625B5
:1019C000089560E070E0CB010E94DA0C089560E0B9
:1019D00070E0CB010E94D30C0E94E10C0895A8E0B6
:1019E000B0E0E5EFFCE00C94D52465EE7EEF80E0FE
:1019F00090E00E94622560E082E090E00E94442531
:101A000081E090E09093EA018093E90161E083E056
:101A100090E00E94442560E074E184E090E00E9440
:101A2000622560E086E090E00E94442560E087E067
:101A300090E00E94442540E050E0BA0188E090E048
:101A40000E94562560E083E290E00E94442560E019
:101A50008CE090E00E94442560E08DE090E00E94E0
:101A6000442519821A821B821C821D821E821F82BB
:101A7000188648E050E067E170E0CE0101960E94D0
:101A8000342540E050E0BA018FE190E00E945625F5
:101A90000E94E70C2896E2E00C94F1240E94EF0CDF
:101AA00008958EE090E00E942625982F81E0911104
:101AB00001C080E00895682F8EE090E00E944425E8
:101AC0000895A6E0B0E0E7E6FDE00C94D3240E9480
:101AD000A81B8C018091810290918202801791074E
:101AE00079F019821A820E94A81BBC0149815A818F
:101AF00080E090E00E94D80310938202009381025C
:101B00002696E4E00C94EF240E94B41060939702B0
:101B1000709398028093990290939A026093930233
:101B2000709394028093950290939602089508957D
:101B300008950E94970D089508950E949C0D0895A0
:101B400081E0089587EE90E10E94DC140E94980DD8
:101B50000E94990D08950E94CB120895089508954A
:101B60000E94AE0D0E94AF0D08950E94B30C81112A
:101B700002C00E944E0D0E94BE0C80939B020E94E8
:101B8000C80C9093EB028093EA020E94FF140E941B
:101B9000C30C90E00E9463078091E7019091E801F7
:101BA0000E94840708950E949F1B0E947E100E943D
:101BB000CE120E940C120E94B50D0E94B2030E9428
:101BC00002150E94E0120E949D0D0895A6E0B0E06B
:101BD000ECEEFDE00C94C9240E94A00D81110CC014
:101BE0000E94610D0E94CB120E94B4170E94BF0395
:101BF0002696EEE00C94E5240E94301223E8822E13
:101C000022E0922E640110E0F601E190F1906F0164
:101C1000812F0E94F1101F5F183009F44DC0E816A3
:101C2000F90691F380919B0281FD0E94FA100E94B7
:101C3000AB0D782EF12C662463948F2D0E94F11049
:101C40008C01F401A190B1904F018A159B0569F1B7
:101C5000A826B926E12CCC24C394D12CC5018C2113
:101C60009D21892BC1F07720B1F0E982FA820E9490
:101C7000A81B9C838B836D8221E0C8018C219D2150
:101C8000892B09F420E049815A816B817C818D8107
:101C9000922F0E94D803E394CC0CDD1CFCE0EF12E1
:101CA000DDCFF401329711830083F39488E0F812BA
:101CB000C4CF0E94840D96CFE816F90609F0B2CF82
:101CC0008FCF1F93CF93DF930E948B0FEC01811571
:101CD00022E5920708F053C0811540E5940708F00B
:101CE000DDC0803E9105F8F48D3C910508F0AEC052
:101CF000883A910580F4853A910508F099C08130C1
:101D0000910521F00497813A910550F4CE01DF91BD
:101D1000CF911F910895885A91094B9708F48BC071
:101D2000C0E0D0E0F3CF811550E49507F8F4C11579
:101D300080E2D80708F0CBC0C83ED10538F3CE0109
:101D40009A9581159F4160F78D2F0E942F10182FB3
:101D5000CE0199270E948B0F212F30E0322F2227AE
:101D6000E901CC27DF71C82BD92BD0CF99270E944E
:101D70008B0FCC27DF70C82BD92BD06AC7CF803808
:101D800042E59407C8F5803652E5950708F067C02C
:101D9000C03482E5D807B0F08C2F86958695877081
:101DA00020E2829FC0011124C37021E030E0A9012C
:101DB00002C0440F551FCA95E2F7EA01C82BD92B80
:101DC000DC68A4CFC03252E5D50708F041C08C2FA3
:101DD0008695869520E2829FC0011124C37021E080
:101DE00030E0A90102C0440F551FCA95E2F7EA018D
:101DF000C82BD92BDD688ACF803C52E5950760F46B
:101E00008F71C03AD24508F03FC090E0982F8827E4
:101E1000EC01C46FD06A7ACF805C9245809708F05D
:101E20007FCFDC2FCC27CC27DF71C06FD06A6ECF7D
:101E3000A497D0646BCFC85AD0E0CC0FDD1FCA592D
:101E4000DE4F0990D881C02DD46460CFD0655ECFBD
:101E5000CF71D0E0DC2FCC27C16FD06A57CF8695E9
:101E60008695877020E2829FC0011124C37021E013
:101E700030E0A90102C0440F551FCA95E2F7EA01FC
:101E8000C82BD92BDA6842CF0E942F10C82FD0E080
:101E9000DC2FCC27CC27DF71D06238CF8F710E9426
:101EA0002F1065E0D695C7956A95E1F7CF70D0E021
:101EB000DC2FCC27282F30E084FF05C054E0220F10
:101EC000331F5A95E1F7C22BD32BD0691FCF8D2F2B
:101ED0008F710E942F10182FCE0199270E948B0F0F
:101EE000212F30E0322F222722273F71282B392B38
:101EF000E901D2CF462F672F783028F44C3018F400
:101F00000E94B802089580E090E008950E947A0F40
:101F10000E94610E0895803E9105D1F1C8F481338D
:101F2000910509F47FC048F48932910509F46FC026
:101F30008A32910509F47DC0089589339105E1F055
:101F400082389105C9F08533910509F45BC0089585
:101F5000843E9105D1F148F4823E910531F1833EF2
:101F6000910541F181EE90E00895863E9105C1F121
:101F7000873E9105E1F108952091EA022370211135
:101F800065C02091EB0223FF14C089E290E0089520
:101F90002091EA0220FD43C03091EB0230FF09C0DE
:101FA00024FF4EC080E090E008952091EA0222FDD7
:101FB000F7CF08952091EA0222FD45C03091EB024F
:101FC00030FD44C024FFF5CFEDCF2091EB0221FF7F
:101FD000F0CF8091EA0284FDE5CF87EE90E008958E
:101FE0002091EA0223FFE5CF24FDDCCFF6CF20913C
:101FF000EA0223FD2EC03091EB0231FFE3CF84EEE5
:1020000090E008952091EA0225FFD3CFBECF209122
:10201000EA0225FD21C02091EB0223FFCACF89E30C
:1020200090E008952091EA0226FFC3CF8AE290E073
:1020300008952091EA0226FFBCCF81E390E0089545
:1020400083EE90E0089582EE90E0089580EE90E0B7
:10205000089586EE90E0089585E390E0AACF9091F0
:10206000EA0292FF10C041E0282F2471243009F0C9
:1020700040E031E0282F2871283009F030E0431784
:1020800011F02CE0822793FF10C041E0282F24712B
:10209000243109F040E031E0282F2871283109F07F
:1020A00030E0431711F02CE082273091EB0230FF33
:1020B00010C051E0282F2171213009F050E041E09B
:1020C000282F2871283009F040E0541711F029E03A
:1020D000822731FF10C041E0282F2171213109F002
:1020E00040E031E0282F2871283109F030E0431713
:1020F00011F029E0822794FD877E08951092EC026A
:102100001092ED021092EE021092EF020895CF921B
:10211000DF92EF92FF92CF93DF9300D000D0CDB744
:10212000DEB76B017C010E94CB12811112C00E94AC
:10213000B41B69837A838B839C83C61AD70AE80A07
:10214000F90AC092EC02D092ED02E092EE02F09217
:10215000EF020F900F900F900F90DF91CF91FF90B3
:10216000EF90DF90CF900895A4E0B0E0EAEBF0E1CB
:102170000C94D5240E94CB12882371F00E94B41BCA
:1021800069837A838B839C8369817A818B819C812B
:102190002496E2E00C94F1240E94B41B69837A83B4
:1021A0008B839C838091EC029091ED02A091EE02D2
:1021B000B091EF0229813A814B815C81280F391F50
:1021C0004A1F5B1F29833A834B835C83DDCF80E00A
:1021D000089508950E94E910089508950E94ED1051
:1021E0000895E82FF0E0EE0FFF1FEF5FFC4F8081B6
:1021F00091810895089580EA8A95F1F7089500C0C5
:1022000008950E94FB10089508950E9404110895F6
:10221000A8E0B0E0EEE0F1E10C94CF240E94CB12F4
:10222000182F60911103882309F449C058E0C52E86
:10223000CE0101967C01FC018C2D11928A95E9F763
:10224000862F90E0880F991FB7018F5F9C4F0E94E7
:10225000EE12DE2C0F2D8823C9F08091F00290E061
:10226000880F991F48E050E0B7018F5F9C4F0E9494
:10227000102521E020939C02892B91F410E00E940C
:10228000EE10812F2896E8E00C94EB2480919C02BC
:102290008823A1F3F7011192CA94E9F710929C02E6
:1022A000A091F002B0E0AA0FBB1FAF5FBC4F88E067
:1022B000ED2DF02F01900D928A95E1F7E0CF70E0BF
:1022C000660F771F6F5F7C4F8091F00290E0880F60
:1022D000991F8F5F9C4F0E9477130E940511D1CFE9
:1022E000F894E82FE295EF70F0E041A18F7021E0C3
:1022F00030E0B90102C0660F771F8A95E2F7CB0183
:10230000962F9095942391A392A1892B82A37894E0
:102310000895CF93DF9381E30E94701183E30E94BD
:10232000701182E30E94701186E30E947011CCE963
:10233000D1E089918F3F11F00E94701181E0C83A7D
:10234000D807B9F7DF91CF910895A0E0B0E0EBEAAC
:10235000F1E10C94CE24EC01B62E062F10E0C8015A
:1023600088559E4F7C01FC0180818F3F09F44FC04E
:10237000F894E82FE295EF70F0E091A18F7021E0E2
:1023800030E001C0220F8A95EAF7892F822B81A3C2
:1023900082A12095282322A378940E94FF10ECE9C3
:1023A000F1E041E050E0C12CD12C21912F3F89F088
:1023B000A22FA295AF70A05EB0E08C9190E02F703C
:1023C00002C0959587952A95E2F781709A01882336
:1023D00011F020E030E0C22AD32A440F551F81E0DB
:1023E000E83AF80711F7F70180818F3F11F00E945A
:1023F000701161E0C114D10409F460E08B2D0E94DA
:102400000111000F111FC00FD11FD982C882CDB793
:10241000DEB7E9E00C94EA24809104018091040184
:1024200091E08927880F880F8093110394E0981B0F
:102430009093F0020E94891180E1E1E0F3E0DF0176
:10244000982F1D929A95E9F7E1EFF2E0DF011D92D6
:102450008A95E9F784E00E9472120E94EA100895BA
:10246000A0E1B0E0E6E3F2E10C94D224FE01319663
:1024700080E1DF011D928A95E9F710E0FE2E0F2F13
:10248000612F8F2D902F0E94A5111F5F1430C1F76F
:1024900040E150E06F2D702F81EF92E00E941025F7
:1024A00021E0892BA9F420E06091110370E0660F10
:1024B000771F6F5F7C4F44E081EF92E00E947312C0
:1024C000182F0E940811812B6096E5E00C94EE24F1
:1024D00080E1EF2DF02FA1EFB2E001900D928A95EF
:1024E000E1F7E2CF0895A0E0B0E0E9E7F2E10C9473
:1024F000CF24D82EE92EF62ED72F042FC22F222339
:1025000079F081E080939F020E94A81B90939E0225
:1025100080939D0280E0CDB7DEB7E8E00C94EB2419
:10252000C0909F02CC20B1F380919D0290919E02B9
:102530000E94D11B059770F310E0000F111FA80136
:102540006D2D7E2D8F2D9D2F0E941025892B41F002
:10255000A8016D2D7E2D8F2D9D2F0E941D25CC2D28
:1025600010929F028C2FD7CF0E94B30C811102C012
:102570000E944E0D0E94510D0895CF930E949E24FB
:10258000C82F811102C00E9499248C2FCF910895E9
:102590008091A30208958091A20208950E94BD1225
:1025A0008093A2020E94B4128093A3020E94C812D8
:1025B000809304010E94CB1281110E94241308957C
:1025C0000E94CB12811102C00E942713089581E05E
:1025D0009091A4029A3008F080E008950F931F9321
:1025E000CF93DF93EC01162F072F8091A4028A303E
:1025F00090F4612F702FCE010E947413811121C0BD
:102600008091A4028F3FB1F40E94A81B9093A10275
:102610008093A00209C08091A0029091A1020E9423
:10262000D11B843F914028F780E0DF91CF911F912B
:102630000F9108958F5F8093A4028A3028F781E07C
:10264000F4CF1092A402FBCF0E94AD1C08950E940B
:10265000B01C0895A0E0B0E0E0E3F3E10C94CF24D7
:10266000FA0169017801C82F880FDD0B3097B1F0AE
:10267000DE0193E0AA0FBB1F9A95E1F7AB5FBE4F57
:1026800011968D919C9112978B559D4F4C9150E0D6
:10269000E417F50708F4AF010E941D25CE010E9442
:1026A0009B1D182F8823D1F0E114F104B9F083E0C9
:1026B000CC0FDD1F8A95E1F7FE01EB5FFE4F4381F2
:1026C00050E0E416F50608F4A701CB5FDE4F6C81FD
:1026D0007D816B557D4FC6010E941D25812FCDB791
:1026E000DEB7E8E00C94EB240E94751408950E9474
:1026F0008E140895A8E0B0E0E0E8F3E10C94D32450
:102700008091C2029091C302A091C402B091C5020F
:10271000BC01CD010E94E01B11E06436710581050A
:10272000910520F10E94B410DC01CB010296A11D9D
:10273000B11D89839A83AB83BC8300E010E020E065
:1027400030E044E050E0BE016F5F7F4F82E00E94C6
:102750002A13182F882351F00E94B41B6093C202E1
:102760007093C3028093C4029093C502812F289670
:10277000E4E00C94EF24ADE0B0E0E1ECF3E10C9484
:10278000CD247B01A090AC01B090AD0101E010E040
:102790009E01275F3F4F40E050E060E070E080E046
:1027A0000E942A13182F882309F44DC065018FEF6A
:1027B000C81AD80A8091BE029091BF02A091C002AF
:1027C000B091C102BC01CD010E94E01B6A877B87EA
:1027D0008C879D87643671058105910560F108E05D
:1027E00010E09E012F5F3F4F40E050E060E070E05E
:1027F00081E00E942A13182F68E070E0C6010E9451
:102800000315998598132AC0112341F10E94B41B26
:102810006093BE027093BF028093C0029093C10286
:1028200088E0FE013196A6EBB2E001900D928A9508
:10283000E1F781E014C068E070E0C6010E94031572
:1028400099858913CCCF88E0F5013196DE01119688
:1028500001900D928A95E1F71111E2CF80E098E0A6
:10286000E6EBF2E0D70101900D929A95E1F72D96F3
:10287000EAE00C94E924A0E0B0E0E1E4F4E10C9497
:10288000CD24F82EE92EB62EA72E8A010E94E7123B
:10289000CC24C394D12C882319F08AE0C82ED12CE3
:1028A000C1E0D0E06B2D7A2D8F2D9E2DF80109957A
:1028B000811116C02196CC16DD0694F0CC9FC00184
:1028C000CD9F900D900D112420E030E045E34A9516
:1028D000F1F700002F5F3F4F28173907B9F7E2CF14
:1028E000CDB7DEB7EAE00C94E9240F931F93CF93A2
:1028F000DF93D82FC92F8B014BEB53E10E943B1480
:10290000882339F04AE753E1B8018D2F9C2F0E94AC
:102910003B14DF91CF911F910F9108950F931F9357
:10292000CF93DF93FB01C091AC01D091AD01CE01FB
:10293000019628E0DC0101900D922A95E1F768E00C
:1029400070E00E940315888369857A858B859C8554
:102950000091B2021091B3022091B4023091B502FD
:10296000601771078207930751F06093B20270936A
:10297000B3028093B4029093B5020E948710DF9156
:10298000CF911F910F9108950E94E60D08950E9426
:10299000411B0E94591F0E94A20D0E94731F0E949A
:1029A000D30D0E94801F0E94851F0E94C4140E94A4
:1029B0009F1F0E94B00DF7CF9093AF018093AE019F
:1029C00008950E94AC0C089580E00E94F11081707F
:1029D00008950E9430122FEF86E791E02150804049
:1029E0009040E1F700C000000E9430120E94E41401
:1029F000882321F00E94E1140E94241C08950E9463
:102A0000E91408950895FC01680F791F8FEF91E391
:102A1000E617F70709F408952191822728E030E0AE
:102A200087FF08C0880F89272150310921153105FA
:102A3000B9F7EECF880FF8CFCF93DF93EB01863154
:102A40009C4719F50E94830B9D819923A1F08A7AF6
:102A500091E0811101C090E09093C602882349F073
:102A600085E30E94911A0E943D0C80E0DF91CF9196
:102A7000089589E2F6CF8091C602882321F085E38C
:102A80000E94A81AF0CF89E2FBCF81E0EFCFCF936D
:102A9000DF93EC01FB018581882309F4D2C09E01FC
:102AA00030572332310508F0B2C00E94C80C909311
:102AB000EB028093EA02FE01E150F047E232F105B9
:102AC00020F4EA57FA4D0C94BF248091EA02816009
:102AD0008093EA0293C08091EB0288608093EB02BE
:102AE0008DC08091EA028260F3CF8091EA02846017
:102AF000EFCF8091EA028860EBCF8091EB0281609A
:102B0000EDCF8091EB028260E9CF8091EA02806193
:102B1000DFCF8091EA028062DBCF8091EA0280649D
:102B2000D7CF0E9414078091EA028068D1CF8091AC
:102B3000EA028C60CDCF8091EB028360CFCF809191
:102B4000EA028E7FC5CF8091EB02877FC7CF80914D
:102B5000EA028D7FBDCF8091EA028B7FB9CF809151
:102B6000EA02877FB5CF8091EB028E7FB7CF80914D
:102B7000EB028D7FB3CF8091EA028F7EA9CF809147
:102B8000EA028F7DA5CF8091EA028F7BA1CF0E94C0
:102B900014078091EA028F779BCF8091EA02837FAE
:102BA00097CF8091EB028C7F99CF8091EA0282FBD4
:102BB000992790F921E0922790FB82F990FB83F905
:102BC00087CF8091EB02982F909591708E7F892B03
:102BD00090FB81F983CF9091EA02892F8F7B96FF3A
:102BE000806476CF0E9414079091EA02892F97FBA8
:102BF00087F980586DCF81E00E945B0D8091EA02D9
:102C00009091EB020E94CD0C0E94140780E0DF91AE
:102C1000CF91089580E0F0CF9091EA02892F8F7EC6
:102C200094FF806155CF9091EA02892F8E7F90FFAB
:102C300081604ECF9091EB02892F877F93FF886050
:102C40004DCF81E0E4CF282F35EB2303C0011124C1
:102C500097FF04C080589109892F089580589F4F8D
:102C6000FBCF8091CD0280FF0DC06091220170E00A
:102C7000660F771F60387105C0F561157105B9F1F0
:102C8000862F089581FF07C06091220184E0689F2C
:102C9000B0011124EFCF82FF04C06091220188E0CF
:102CA000F6CF8091CC028823E9F0909121016091C8
:102CB000220170E0891730F093E0660F771F9A9534
:102CC000E1F7D8CF869F9001879F300D112483E0D4
:102CD000220F331F8A95E1F7692F70E0C9010E9426
:102CE000AB24C8CF68E070E0CBCF8FE7089581E0D8
:102CF00008958091CD0280FF0CC060911E0170E0AC
:102D000075956795759567956115710561F1862FC4
:102D1000089581FF06C060911E0170E0759567956A
:102D2000F3CF60911E0170E082FD15C02091CB02AF
:102D30002223B1F090911D0160911E0170E02917CE
:102D400050F4269FA001279F500D1124692F70E099
:102D5000CA010E94AB2460387105B0F28FE7089574
:102D600061E070E0D4CF81E00895E3E3E80FE33160
:102D7000E0F5F0E0E855FA4D0C94BF240E943116BE
:102D800081958093D10208950E943116FACF0E9456
:102D9000311681958093D00208950E943116FACFA2
:102DA0000E9479168093D20208950E947916819527
:102DB000F9CF0E94791681958093D30208950E94DD
:102DC0007916FACF815D990B21E030E001C0220F26
:102DD0008A95EAF78091CF02822B8093CF020895E3
:102DE0008091CD0281608093CD0208958091CD02C3
:102DF0008260F9CF8091CD028460F5CF4091D002FE
:102E00008D3C59F48091D10287FF0DC01092D10200
:102E1000442359F41092CC0208C08E3C81F4809176
:102E2000D10218169CF3442381F08091D202909134
:102E3000D302892B811159C01092CB0208958F3C87
:102E400041F447FFF0CF1092D0028091D102882345
:102E5000E0CF803D19F41416B4F3E5CF9091D2027F
:102E6000893D29F41916FCF61092D202DCCF8A3D76
:102E700019F497FFD8CFF8CF9091D3028B3D29F466
:102E800097FFD1CF1092D302CECF8C3D19F41916F3
:102E9000CCF3C9CF9FE2980F983090F4815D990BE5
:102EA00021E030E0B90102C0660F771F8A95E2F792
:102EB000CB0180959091CF0289238093CF02B3CF2D
:102EC0008D3D31F48091CD028E7F8093CD02ABCFCA
:102ED0008E3D21F48091CD028D7FF7CF8F3D09F09B
:102EE000A2CF8091CD028B7FF0CF08950E94A81BC6
:102EF0002091D0023091D102232B222321F0809304
:102F0000C9029093CA022091D2023091D302232B9E
:102F1000222321F08093C7029093C8028EEC92E0A6
:102F20000E948719089586E0EEECF2E0DF011D9221
:102F30008A95E9F71092CC021092CB021092CD0242
:102F40000895FC01828181110DC0838181110AC025
:102F50008481811107C081E09581911101C080E0D9
:102F60008170089581E0FCCFA6E0B0E0EAEBF7E1E4
:102F70000C94D22486E0EEECF2E09E012F5F3F4FEE
:102F8000D90101900D928A95E1F71092D00210922A
:102F9000D1021092D2021092D3028B819C81892B94
:102FA0008901882391F08091C9029091CA020E9400
:102FB000D11B9C018091CC028823C9F1409123014F
:102FC00050E04217530708F43FC08D819E81892B42
:102FD000882399F08091C7029091C8020E94D11B6A
:102FE0009C018091CB02882309F467C040911F01A6
:102FF00050E04217530708F46EC0B8018EEC92E01F
:103000000E94D91A811105C08EEC92E00E94A1178E
:1030100081110E94761786E0F801AEECB2E00190D3
:103020000D928A95E1F72696E5E00C94EE24409106
:1030300024019AE0499FA00111244217530728F662
:103040008F5F8093CC0202C08F3FD1F7FB80FF20BF
:1030500059F00E94311691E01F140CF09FEF899FE8
:10306000802D11248093D002FC80FF2059F00E9413
:10307000311691E01F140CF09FEF899F802D1124D1
:103080008093D1028091D002882309F49ECFF090E2
:10309000D102FF2009F499CF0E942316811101C0AB
:1030A00081E08093D0028F2D0E942316882319F08F
:1030B0008093D1028ACF81E0FBCF409120019AE03A
:1030C000499FA00111244217530708F096CF8F5F44
:1030D0008093CB0202C08F3FD1F7FD80FF2059F0D3
:1030E0000E94791691E01F140CF09FEF899F802DAC
:1030F00011248093D202FE80FF2059F00E9479169D
:1031000091E01F140CF09FEF899F802D1124809374
:10311000D3028091D202882309F46FCFF090D302BA
:10312000FF2009F46ACF0E942316811101C081E0BB
:103130008093D2028F2D0E942316882319F080934A
:10314000D3025BCF81E0FBCF0F931F93CF93DF932D
:10315000C42FD22FFC0185818823C9F04093D60269
:103160000E94A81B9093D5028093D40280E28C0F1A
:10317000883040F4C77081E001C0880FCA95EAF733
:103180000E94B704DF91CF911F910F910895109184
:10319000D60214133CC08091D4029091D5020E94B3
:1031A000D11B883C910598F5C0E2CD0F1D1741F168
:1031B00080E2810F883040F4177081E001C0880FF1
:1031C0001A95EAF70E94BE04C83020F0802F0E94B2
:1031D000AE04D8CF91E08D2F877001C0990F8A95EA
:1031E000EAF7892F0E94B704802F0E94AE04D7709F
:1031F00081E001C0880FDA95EAF70E94BE04C2CFD1
:10320000802F0E94AE04C83008F0BCCFF0CF80E21F
:103210008C0F883008F0B6CFC77081E001C0880FEE
:10322000CA95EAF7EACF0F93FC01CB01E851FC47BE
:10323000E730F10590F5E554FA4D0C94BF2406E211
:1032400021EE41EE6AE17CE70E94A41880E00F9134
:10325000089507E225EE45EE6BE17CE7F5CF06E247
:1032600021EE40EE68E17CE7EFCF07E225EE44EE89
:1032700069E17CE7E9CF06E221EE42EE6CE17CE712
:10328000E3CF07E225EE46EE6DE17CE7DDCF08E215
:1032900021E045EE6EE17CE7D7CFFB01858181110E
:1032A0001092D60281E0D3CF9093DD028093DC02AE
:1032B00008950E94CB12811103C08091D702089516
:1032C000E091DC02F091DD02309729F00190F0816D
:1032D000E02D0995089580E00895E091DC02F091D9
:1032E000DD02309721F00280F381E02D09950895E9
:1032F000DC01E091DC02F091DD02309739F086E0EC
:103300008C930480F581E02DCD0109950895DC01B1
:10331000E091DC02F091DD02309739F082E08C938D
:103320000680F781E02DCD0109950895A3E0B0E076
:10333000ECE9F9E10C94D5249C018091DA0290919A
:10334000DB0282179307A1F03093DB022093DA02AD
:10335000E091DC02F091DD02309751F083E0898347
:103360003B832A830084F185E02DCE0101960995E7
:103370002396E2E00C94F124A3E0B0E0E2ECF9E162
:103380000C94D5249C018091D8029091D902821787
:103390009307A1F03093D9022093D802E091DC0288
:1033A000F091DD02309751F084E089833B832A83DA
:1033B0000084F185E02DCE01019609952396E2E087
:1033C0000C94F12420910201309103012E5F3F4FB4
:1033D00080912F018823A9F08091EA0287FF11C014
:1033E00020910001309101012E5F3F4F9DE180E06F
:1033F000F90140812F5F3F4F41118F5F9150C0F71E
:10340000089595E0F4CF882321F190912F0199231D
:1034100011F19091EA0297FF1EC0982F969596950C
:103420009695803FB0F4E0910001F0910101E90F21
:10343000F11D228130E0877041E050E0BA0102C006
:10344000660F771F8A95E2F72623372381E0232B27
:1034500091F480E008952091020130910301F90177
:103460003296285F3F4F9191981721F0E217F307AA
:10347000D1F7EFCF81E008959C01FC0132968FEFE8
:1034800090E04191461751F08F3F19F4411101C06E
:10349000892F9F5F9630A9F78F3F09F40895280F71
:1034A000311D87FD3A95F901628308959C01FC0165
:1034B0003296285F3F4F8191861303C0DF01119739
:1034C0001C92E217F307B9F70895FC01862F869541
:1034D00086958695603F60F4E80FF11D677021E0E6
:1034E00030E001C0220F6A95EAF78281822B828345
:1034F0000895FC01862F869586958695603F80F419
:10350000E80FF11D677081E090E09C0102C0220F7E
:10351000331F6A95E2F7B90160958281682362835F
:103520000895682F80912F01882359F08091EA0235
:1035300087FF07C080910001909101010E94651AE8
:10354000089580910201909103010E943C1A089510
:10355000682F80912F01882359F08091EA0287FF1C
:1035600007C080910001909101010E94791A08958D
:1035700080910201909103010E94561A0895809152
:103580002F01882379F08091EA0287FF0BC0E09138
:103590000001F091010132968EE1DF011D928A95C2
:1035A000E9F70895E0910201F0910301329686E077
:1035B000F4CFDC01FB0111969C9111978181981346
:1035C00022C012968C911297882319F09281891348
:1035D0001AC013968C911397882319F0938189133D
:1035E00012C015968C911597882319F0958189132F
:1035F0000AC014969C91992321F081E0248129131B
:1036000003C080E001C081E08170089508950E94A8
:10361000061B08958F5F8093DE020E94071B0895AA
:1036200083E08093DE020E94071B08950E940A1B1C
:10363000089581E08093DE020E94071B08950E9496
:10364000191B0895089508950E94231B0895089555
:1036500008950E94221B0895CF930E94271B0E9469
:1036600030120E94281BC0E08C2F0E94F110892B81
:1036700031F4CF5FC830C1F780E0CF91089581E089
:10368000FCCF85B7806885BF85B7806885BF089502
:103690001F921FB61F9211248F939F93AF93BF93D6
:1036A0008091DF02811113C0809112039091130366
:1036B000A0911403B09115034196A11DB11D8093F3
:1036C000120390931303A0931403B0931503BF91B7
:1036D000AF919F918F911F901FBE1F901895809161
:1036E0001A03843031F10E9496031092DF0288E1C0
:1036F00090E020E40FB6F894A895809360000FBE88
:103700002093600083B7817F846083BF83B781602B
:1037100083BF7894889583B78E7F83BF0FB6F89464
:10372000A89580916000886180936000109260008D
:103730000FBE08950E9414070E949B03089582E023
:1037400084BD93E095BD9AEF97BD80936E00089578
:103750002FB7F8948091120390911303A091140352
:10376000B09115032FBF0895A4E0B0E0EAEBFBE1B0
:103770000C94D5248FB7F894209112033091130341
:10378000409114035091150329833A834B835C8342
:103790008FBF69817A818B819C812496E2E00C94B1
:1037A000F1249C014FB7F894809112039091130378
:1037B000A0911403B09115034FBF821B930B089582
:1037C000A4E0B0E0E6EEFBE10C94D324462F572FA3
:1037D000BC012FB7F8948091120390911303A0912C
:1037E0001403B09115032FBF8C019D01041B150B11
:1037F000260B370BC901B8012496E4E00C94EF24A2
:1038000078941F921FB61F9211248F939F93AF93AA
:10381000BF938091120390911303A0911403B09170
:1038200015030196A11DB11D8093120390931303FC
:10383000A0931403B0931503BF91AF919F918F9103
:103840001F901FBE1F90189581E08093E00080E2DA
:103850008093D8001092C9008FE19EE40197F1F7A0
:1038600000C0000087E090EBDC018093230390937D
:103870002403A0932503B093260388E19CE00FB6B0
:10388000F894A895809360000FBE90936000FFCFDE
:1038900088E19CE00FB6F894A895809360000FBE75
:1038A00090936000FFCF8EE1489B03C0815081114F
:1038B000FBCF489BFECF0895589880E28A95F1F798
:1038C000589A0895FC012BE02A95F1F728E090E042
:1038D00080E031E040E14A95F1F7880F489B02C053
:1038E0008160932742E04A95F1F7000040E14A9554
:1038F000F1F721502111EECF20E12A95F1F729B1FE
:1039000032E03A95F1F7000040E14A95F1F7217075
:1039100092272081920F90830895A1E0B0E0E3E91F
:10392000FCE10C94D12419828C017C01E60EF11C7F
:103930000E151F0541F481E09981911180E02196D7
:10394000E6E00C94ED240E94531CCE0101960E94E7
:10395000621CF80181938F01EBCF509A589A089519
:103960005098589AE89AE9E6F0E080818C7F80834D
:1039700008956150770B91E001C0990F6A95EAF7BD
:10398000692F90E021E0611108C0992399F0589ABD
:1039900080E28A95F1F758980895362F382333231B
:1039A00039F0589A922730E23A95F1F76695EBCFC5
:1039B0005898F9CF5898ECCFFF920F931F93CF935D
:1039C000DF93EC018C01060F111DC017D10729F4FC
:1039D000CDB7DEB7E5E00C94EE24F9900E945C1CB4
:1039E00068E08F2D0E94B91CF0CF1F920F920FB686
:1039F0000F9211240F931F932F933F934F935F9335
:103A00006F937F938F939F93AF93BF93EF93FF93A6
:103A1000CF93DF930F92CDB7DEB719820E94531C6C
:103A2000CE0101960E94621C082F06950695069508
:103A3000982F92959570202F2570920F292F237023
:103A400096959695920F982797708981892B811169
:103A50005CC0043008F059C080E18A95F1F7589AAB
:103A6000509A82E08A95F1F700C0589888E0089F44
:103A700080011124D801AB5FBE4F1696ED91FC91E9
:103A800017973097A9F06091AC017091AD01149631
:103A90002D913C911597260F371F11968D919C9172
:103AA0001297680F791F13964C9113978C91099573
:103AB000F801EB5FFE4F6381662351F02091AC016A
:103AC0003091AD0184819581820F931F0E94DC1C8F
:103AD0000E945C1C80E18A95F1F758985098589A9A
:103AE00080E18A95F1F7F801EB5FFE4F6081662374
:103AF00051F02091AC013091AD0181819281820F12
:103B0000931F0E948D1C0E94531C0F90DF91CF9138
:103B1000FF91EF91BF91AF919F918F917F916F91A5
:103B20005F914F913F912F911F910F910F900FBE79
:103B30000F901F9018950F931F93CF93DF938C01D5
:103B400004970CF065C0F894509A589885E08A95CF
:103B5000F1F70000C02FC695C570802F8570C80F83
:103B60008C2F8370C695C69593E0000F111F9A9510
:103B7000E1F7C80FC8018C2BEC010E945C1C00C04F
:103B800068E08C2F0E94B91C90E19A95F1F750984B
:103B9000589A489B35C087E090E0489933C0F801B7
:103BA000EB5FFE4F6381662361F02091AC013091A1
:103BB000AD0184819581820F931F0E948D1C882303
:103BC00021F10E94531C80E28A95F1F75898509A8F
:103BD00090E19A95F1F7F801EB5FFE4F6081662363
:103BE00051F02091AC013091AD0181819281820F21
:103BF000931F0E94DC1C0E945C1C789481E009C029
:103C000000C0C7CF0197009749F4509A589A78940A
:103C100080E0DF91CF911F910F91089500C0BDCF3B
:103C20008091E8020895282FCB01BA0130911A0340
:103C30003430E1F42F702093E9002FEF3091E80049
:103C400035FD07C035ED3A95F1F7000021502111FF
:103C5000F5CF2091E80025FF09C040E050E00E9428
:103C600017208091E8008E778093E8000895BC01CA
:103C700043E050E082E00E94131E0895BC0146E03C
:103C800050E082E00E94131E0895BC0140E250E023
:103C900082E00E94131E0895CF93DF93D82FC92F7F
:103CA00048E050E0682F792F81E00E94131E88E0E1
:103CB000ED2FFC2FA0EEB2E001900D928A95E1F776
:103CC000DF91CF91089580911903811109C00E945D
:103CD0009F210E94FC218091E20084608093E20099
:103CE00008951092190308950E94191B0895609178
:103CF000160381E0611101C080E00E94101B08954D
:103D000090911A0381E0943009F080E060911603ED
:103D10000E94161B089542E061EC81E00E941B2185
:103D200042E261EC82E00E941B2190911A0381E043
:103D3000943009F080E0609116030E940A1B0895F8
:103D400080911C03893089F148F4823009F4A0C0C5
:103D5000833009F45AC0813041F008958A3009F463
:103D600087C08B3009F46CC0089580911B03813AA1
:103D700009F04AC08091E800877F8093E800809135
:103D80001F0390912003892B61F060E080E090E0B8
:103D900070E00E9466208091E8008B778093E800B5
:103DA000089568E080EE92E0F3CF80911B038132AA
:103DB00059F580911F0390912003029728F5809177
:103DC000E800877F8093E8008091E80082FF18C0B8
:103DD0009091F3008091F200029731F48091F1000C
:103DE000813011F0863021F48091F1008093E80257
:103DF0008091E8008B778093E8000E944F2104C0F7
:103E000080911A038111E0CF089580911B03813ABC
:103E1000D9F780911F0390912003892BA9F78091F6
:103E2000E800877F8093E8008091E80080FFFCCF66
:103E300080912F018093F1008091E8008E77DBCF95
:103E400080911B03813201F780911F039091200321
:103E5000892BD1F68091E800877F8093E8000E944B
:103E60004F2180911D0380932F010E941407089514
:103E700080911B03813241F68091E800877F809317
:103E8000E8000E944F2180911E038093E90208956B
:103E900080911B03813A09F0B7CF8091E800877FBA
:103EA0008093E8008091E80080FFFCCF8091E902D8
:103EB000C1CF84B7877F84BF0FB6F894A89580914F
:103EC0006000886180936000109260000FBE80E8FF
:103ED00090E00FB6F89480936100909361000FBE5C
:103EE0000E941F1B08950E949F210E94FC21E2EE68
:103EF000F0E080818460808378940E947F2408951C
:103F000085E291E00E945419089580911A0385304A
:103F100031F480911A03853019F00E949A1B08959C
:103F20000E946F1B0E942C1B882399F38091180319
:103F3000882379F30E9401200E941407EACF089594
:103F40009A0140912103509122030E94A81F0895D5
:103F5000AC01CB01D901252F332723303105E1F006
:103F600058F421303105C9F122303105D9F180E012
:103F700090E020E030E01EC02132310521F12232F4
:103F80003105A9F7892BC1F16130710581F786EB05
:103F900090E02DE633E00EC0CA019927413069F068
:103FA0008230910569F0ECE1F3E0892B01F784910F
:103FB00090E09F012D933C930895EEEFF2E0F7CF50
:103FC000ECEEF2E0F4CF892B91F06130710579F6D7
:103FD00089E090E02BE433E0EDCF82E190E02BE547
:103FE00033E0E8CF8BE390E020E233E0E3CF89E0F9
:103FF00090E022E333E0DECF84E490E023E234E09B
:10400000D9CF80E189BD82E189BD09B400FEFDCF31
:104010008091D8008F7D8093D8008091E0008260ED
:104020008093E0008091E00081FDFCCF0895AF9285
:10403000BF92CF92DF92FF920F931F93CF93DF93A4
:104040006C01EB018A010E946E21F82E811123C0C0
:104050000115110539F0F80180819181C81BD90B38
:10406000C80ED91EA12CB12C2097A9F08091E80090
:1040700085FD22C08091E8008E778093E8000115CD
:104080001105A1F0F801808191818A0D9B1D91831A
:10409000808385E0F82E8F2DDF91CF911F910F91B6
:1040A000FF90DF90CF90BF90AF9008950E946E2157
:1040B0008823E1F2F82EEFCFF60181916F01809312
:1040C000F1002197FFEFAF1ABF0ACECFFC019B0191
:1040D00080912103909122038617970718F0672B90
:1040E00061F0C90140E0009771F441110CC080916A
:1040F000E80082FF35C080E008958091E8008E7767
:104100008093E800EECF20911A032223A9F12530F5
:10411000A9F12091E80023FD2DC02091E80022FDA7
:10412000E6CF2091E80020FFDECF3091F300209110
:10413000F200009719F02830310558F041E028309E
:10414000310509F040E02091E8002E772093E80047
:10415000CACF41914093F10001972F5F3F4FE9CFC4
:1041600080911A03882341F0853041F08091E80066
:1041700083FFBDCF81E0089582E0089583E0089534
:10418000FC019B01809121039091220386179707E0
:1041900018F0672B61F0C90140E0009771F44111FC
:1041A0000CC08091E80082FF36C080E008958091C5
:1041B000E8008E778093E800EECF20911A03222347
:1041C000B1F12530B1F12091E80023FD2EC02091FE
:1041D000E80022FDE6CF2091E80020FFDECF3091FD
:1041E000F3002091F200009719F02830310558F0C3
:1041F00041E02830310509F040E02091E8002E77B9
:104200002093E800CACF44914093F1003196019782
:104210002F5F3F4FE8CF80911A03882341F085300C
:1042200041F08091E80083FFBCCF81E0089582E0F7
:10423000089583E00895982F973028F08F70809329
:10424000E90081E008959093E900242F762F50E053
:10425000981731F07091EC002091ED005091F00032
:1042600021FD02C09F5FE8CF3091EB003E7F30938D
:10427000EB003091ED003D7F3093ED003091EB008D
:1042800031603093EB007093EC002093ED0050937D
:10429000F0002091EE0027FDE5CF80E008958091A9
:1042A0001B0387FF13C08091E80082FF06C0809146
:1042B000E8008B778093E80004C080911A03811195
:1042C000F2CF089580911A038823D9F38091E800F2
:1042D00080FFF8CF8091E8008E77ECCF2091E4004A
:1042E0003091E50095E6A9018091EC00817088236A
:1042F00031F08091E80080FF06C080E008952091B1
:10430000E80022FD1BC080911A03882391F08530BC
:1043100091F08091EB0085FD10C02091E400309178
:10432000E5004217530701F391509111DCCF84E06F
:10433000089582E0089583E0089581E008950E9441
:104340000E220E941622E0EEF0E0808181608083E0
:10435000E8EDF0E080818F77808319BCA7EDB0E0B5
:104360008C918E7F8C9380818F7E80831092190335
:1043700008950F931F93CF93DF930E940E220E9404
:104380001622C8EDD0E088818F7788838881806885
:10439000888388818F7D888319BC10921A031092BC
:1043A0001603109218031092170300EE10E0F801A4
:1043B00080818B7F808388818160888342E060E098
:1043C00080E00E941B21E1EEF0E080818E7F8083FF
:1043D000E2EEF0E08081816080838081886080836C
:1043E000F80180818E7F8083888180618883DF915E
:1043F000CF911F910F910895E8EDF0E080818F7EBD
:104400008083E7EDF0E080818160808384E082BF7B
:1044100081E0809319030E94B9210895E8EDF0E04E
:1044200080818E7F80831092E20008951092DA00DE
:104430001092E10008951F920F920FB60F9211246F
:104440002F933F934F935F936F937F938F939F939C
:10445000AF93BF93EF93FF938091E10082FF0BC076
:104460008091E20082FF07C08091E1008B7F809302
:10447000E1000E947E248091DA0080FF19C08091C3
:10448000D80080FF15C08091DA008E7F8093DA001B
:104490008091D90080FF94C080E189BD82E189BD0F
:1044A00009B400FEFDCF81E080931A030E94631ED1
:1044B0008091E10080FF19C08091E20080FF15C06B
:1044C0008091E2008E7F8093E2008091E200806123
:1044D0008093E2008091D80080628093D80019BC5C
:1044E00085E080931A030E94771E8091E10084FF8B
:1044F00029C08091E20084FF25C080E189BD82E16E
:1045000089BD09B400FEFDCF8091D8008F7D8093D6
:10451000D8008091E1008F7E8093E1008091E200DD
:104520008F7E8093E2008091E20081608093E200C0
:1045300080911603882309F449C084E080931A030C
:104540000E94801E8091E10083FF29C08091E200DB
:1045500083FF25C08091E100877F8093E10082E0A6
:1045600080931A03109216038091E1008E7F80934E
:10457000E1008091E2008E7F8093E2008091E20072
:1045800080618093E20042E060E080E00E941B21B5
:104590008091F00088608093F0000E94741EFF916B
:1045A000EF91BF91AF919F918F917F916F915F91AB
:1045B0004F913F912F910F900FBE0F901F90189524
:1045C00019BC10921A030E94711E72CF8091E300F1
:1045D00087FF02C083E0B2CF81E0B0CF1F920F927D
:1045E0000FB60F921124FF920F931F932F933F93B7
:1045F0004F935F936F937F938F939F93AF93BF93EB
:10460000CF93DF93EF93FF9309EE10E0F8018081E1
:10461000C091EC00C795CC27C7958F70FC2EF82A67
:104620001082C0EFD0E08881877F888378940E94D1
:104630003723F8011082888188608883CF2DCF705E
:10464000C083FF91EF91DF91CF91BF91AF919F9187
:104650008F917F916F915F914F913F912F911F911A
:104660000F91FF900F900FBE0F901F901895AAE228
:10467000B0E0EDE3F3E20C94D4248BE193E0FC0191
:1046800001962091F100208323E083329207B9F74D
:104690000E94A01E8091E80083FF38C080911B0318
:1046A00090911C039A3090F5E92FF0E0EE53FA4D0B
:1046B0000C94BF24803889F0823841F580911F0323
:1046C0008F70873018F58093E9008091EB0085FBAF
:1046D000882780F91092E90006C080911703909115
:1046E0001803911182609091E800977F9093E80001
:1046F0008093F1001092F1008091E8008E7723C042
:10470000811116C080911D03813011F18091E80064
:1047100083FF0AC08091E800877F8093E800809142
:10472000EB0080628093EB00AA96E3E00C94F02407
:10473000823061F780911D03882389F01092E9008F
:104740008091E800877F8093E8000E944F21DECFB0
:1047500081E0933009F080E080931803EFCF8091DF
:104760001F038F702FEF280F263080F68093E9000B
:104770002091EB0020FFE2CF933031F48091EB00E9
:1047800080628093EB00DACF9091EB009061909380
:10479000EB0021E030E0A90102C0440F551F8A95CB
:1047A000E2F74093EA001092EA008091EB00886003
:1047B000E8CF8111ABCF10911D031F778091E300EB
:1047C0008078812B8093E3008091E800877F80933D
:1047D000E8000E944F218091E80080FFFCCF80918B
:1047E000E30080688093E30083E0111101C082E060
:1047F00080931A038BCF8058823008F087CF809146
:104800001D0390911E038C3D53E0950799F583E0BD
:104810008A838AE289834FB7F894DE01139620E0F9
:104820003EE051E2E32FF0E050935700849120FFE7
:1048300003C082958F703F5F8F708A30C8F0895CAB
:1048400090E08D939D932F5F243161F74FBF80914E
:10485000E800877F8093E8006AE270E0CE0101966D
:104860000E9466208091E8008B778093E8004ECF0D
:10487000805DE6CF60911F0370912003AE014F5F12
:104880005F4F0E94A01FBC01892B09F43FCF80918C
:10489000E800877F8093E80089819A810E94C02088
:1048A000E1CF803809F032CF8091E800877F809394
:1048B000E800809116038093F1001ECF811126CF6E
:1048C00090911D03923008F021CF8091E800877FFE
:1048D0008093E800909316030E944F218091160365
:1048E000882331F084E080931A030E948B1E0ECF40
:1048F0008091E30087FDF6CF81E0F5CF0895CF9357
:1049000080911A03882399F08091E900C091EC000E
:10491000C795CC27C7958F70C82B1092E90080915E
:10492000E80083FD0E943723CF70C093E900CF9148
:1049300008950E949F2110921A030895E8EDF0E077
:104940008081806180838AE18A95F1F700C080913F
:10495000D9008170089597FB072E16F4009407D0B4
:1049600077FD09D00E94FC2407FC05D03EF4909509
:1049700081959F4F0895709561957F4F0895EE0F33
:10498000FF1F0590F491E02D09942F923F924F92D2
:104990005F926F927F928F929F92AF92BF92CF92CF
:1049A000DF92EF92FF920F931F93CF93DF93CDB7D8
:1049B000DEB7CA1BDB0B0FB6F894DEBF0FBECDBF50
:1049C00009942A88398848885F846E847D848C8421
:1049D0009B84AA84B984C884DF80EE80FD800C812A
:1049E0001B81AA81B981CE0FD11D0FB6F894DEBF0D
:1049F0000FBECDBFED010895AA1BBB1B51E107C03F
:104A0000AA1FBB1FA617B70710F0A61BB70B881F5E
:104A1000991F5A95A9F780959095BC01CD010895ED
:104A2000FB01DC0104C08D910190801921F44150FB
:104A30005040C8F7881B990B0895FB01DC0102C0A8
:104A400001900D9241505040D8F70895F999FECF4A
:104A500092BD81BDF89A992780B50895A8E1B0E08C
:104A600042E050E00C946A25DC01A40FB51F4150D0
:104A7000504048F0CB01840F951F2E910E94452590
:104A800041505040D0F70895262FF999FECF92BD9E
:104A900081BDF89A019700B4021639F01FBA20BD03
:104AA0000FB6F894FA9AF99A0FBE08950396272F35
:104AB0000E9445250E944425252F0E944525242F2C
:104AC0000C9445250196272F0E9445250C944425DA
:104AD000DC01CB01FC01F999FECF06C0F2BDE1BDBE
:104AE000F89A319600B40D9241505040B8F70895AD
:104AF000F894FFCF030503054A054A05AF05CC0529
:104B000032053205D1054806590659069F15131678
:104B1000A71571157515AB157915AF15BB1585154D
:104B20000C168915BF158D15C315EB159115C715F5
:104B3000F2159715CD15D5157D15B3158115B7153A
:104B40009B15D115E115FB150A166B15A3151A1641
:104B5000BE16C416C716CD16E216E216E216E21607
:104B6000E216E216E216E216D016D516D916DF16B0
:104B7000F016F616FA162F1935191F1929193B19AF
:104B8000411947195A238023862380238623D9235A
:084B9000FB23862351245E245F
:104B98005702770201000000010000000000000039
:104BA8000801000000040900000000000028085067
:104BB800011E0A1401101E4C1E451E3E1E371E0102
:104BC800E200E900EA00B500B600B700CD008301B5
:104BD800CC008A01920194012102230224022502B9
:104BE800260227022A02B300B4006F0070009F015A
:104BF800CB019F02A002E200E900EA00B500B6007E
:104C0800B700CD008301CC008A01920194012102F2
:104C1800230224022502260227022A02B300B40036
:104C28006F0070009F01CB019F02A0023534C69728
:0E4C3800669400000000000031333236A50201
:00000001FF
